:01080C0022C9
:101E000043A208D1E37591007592007590FF758922
:101E100010538FEF758780E4F58DF58BD1E9309104
:101E2000FBD1E92091FBD28E3091FDC28ED1E985A4
:101E30008D347934E58BD7C4F404F58BF58D758931
:101E400020D28E759852D1A9B455FB7D00D1A9B48A
:101E50003AF9D182853533D182853531D1828535C4
:101E600030D182853534E533FA60097980D182A793
:101E70003509DAF9EDFCD182ECB53502C1C87458E8
:101E8000E126D1A9D1B3C4F535D1A9D1B34235EDFD
:101E9000C39535FD22D1E93099FBC299F59922D13C
:101EA000E93098FBC298E59922D19FD19530E6029E
:101EB000C2E52230E6022409540F22540FC3940ACB
:101EC0005003243A22244122E53423901ECF73E1AB
:101ED0000BC1F0E18BE198E1A9E1BBE1B7E1DEC123
:101EE00000E12A75C1FF43A7E075C2A575C35A2258
:0E1EF0007402F1F4740112FF03EFF1F4E12427
:101F0000C1037452D195EFF1F4E173AB33EB60147C
:101F1000AD30AC317F80740078FF7696C2D112FF6D
:101F20000320D5DE742ED195E173788086830886F0
:101F300082088631088630083098FDC298B60010B5
:101F4000F1D57A10E583F1F4E582F1F4743DD19591
:101F5000AC83AD82740712FF03EFB60004F1F48086
:101F600003B4001DE531B58313E530B5820EB6012B
:101F700002E124F1D53099FDD29CC14BA3DAD1E125
:101F80003DE583F1F4E582F1F4E1737980E7FF093F
:101F9000E7FD7402E118E1027980E7FF740312FFA4
:101FA0000320D5F2EFF1F4E1247980E7FF09E7FCA3
:101FB00009E7FD7404E1187406E1C17980E7FF7454
:101FC0000512FF0320D5CFECF1F4EDF1F4EEF1F4BE
:101FD000EFF1F4E124740DD195740AD19522742E99
:101FE000D19579FFD9FED9FEC28E7980878D878BF6
:101FF000D28EE124FCC4D1BBD195ECD1BBD19522CA
:04FFF00023001E00CC
:08FFF8000003020000000007F5
:03000000020800F3
:0C08000078FFE4F6D8FD75814C02080C6E
:00000001FF
